:020000040800F2
:100000000000022021600008DD370008B16E000802
:10001000DF370008E1370008E33700080000000080
:10002000000000000000000000000000510E000869
:10003000E537000800000000F10E0008D10C0008B0
:10004000716000087160000871600008716000084C
:100050007160000871600008E7370008F137000898
:10006000716000087160000871600008FD370008C9
:10007000716000087160000871600008716000081C
:100080000D38000871600008716000087160000898
:1000900071600008716000087160000871600008FC
:1000A00071600008DD6F0008716000087160000871
:1000B0001D38000871600008716000087160000858
:1000C00071600008716000087160000871600008CC
:1000D000716000082D380008716000087160000828
:1000E0003D38000871600008716000087160000808
:1000F000513800086138000871600008716000081C
:10010000716000087160000871600008716000088B
:1001100071600008716000087138000871600008A3
:10012000813800087160000891380008716000088B
:10013000716000080000000000000000716000080D
:10014000716000087160000871600008716000084B
:100150007160000871600008A13800087160000833
:10016000716000087160000871600008716000082B
:1001700071600008716000080000000000000000CD
:080180007160000871600008C5
:1001900081F0004102E000BF83F0004330B54FEA38
:1001A00041044FEA430594EA050F08BF90EA020FA5
:1001B0001FBF54EA000C55EA020C7FEA645C7FEA38
:1001C000655C00F0E2804FEA5454D4EB5555B8BF5B
:1001D0006D420CDD2C4480EA020281EA030382EACC
:1001E000000083EA010180EA020281EA0303362D5E
:1001F00088BF30BD11F0004F4FEA01314FF4801C31
:100200004CEA113102D0404261EB410113F0004F42
:100210004FEA03334CEA133302D0524263EB4303F9
:1002200094EA050F00F0A780A4F10104D5F1200E97
:100230000DDB02FA0EFC22FA05F2801841F10001F2
:1002400003FA0EF2801843FA05F359410EE0A5F1C6
:1002500020050EF1200E012A03FA0EFC28BF4CF0F7
:10026000020C43FA05F3C01851EBE37101F00045AD
:1002700007D54FF0000EDCF1000C7EEB00006EEBBA
:100280000101B1F5801F1BD3B1F5001F0CD3490844
:100290005FEA30004FEA3C0C04F101044FEA44529B
:1002A00012F5800F80F09A80BCF1004F08BF5FEA22
:1002B000500C50F1000041EB045141EA050130BD02
:1002C0005FEA4C0C404141EB0101013C28BFB1F514
:1002D000801FE9D291F0000F04BF01460020B1FA5F
:1002E00081F308BF2033A3F10B03B3F120020CDA32
:1002F0000C3208DD02F1140CC2F10C0201FA0CF010
:1003000021FA02F10CE002F11402D8BFC2F1200C74
:1003100001FA02F120FA0CFCDCBF41EA0C0190402A
:10032000E41AA2BF01EB0451294330BD6FEA040473
:100330001F3C1CDA0C340EDC04F11404C4F120025E
:1003400020FA04F001FA02F340EA030021FA04F370
:1003500045EA030130BDC4F10C04C4F1200220FAC7
:1003600002F001FA04F340EA0300294630BD21FA05
:1003700004F0294630BD94F0000F83F4801306BFCB
:1003800081F480110134013D4EE77FEA645C18BFBF
:100390007FEA655C29D094EA050F08BF90EA020F56
:1003A00005D054EA000C04BF1946104630BD91EA4E
:1003B000030F1EBF0021002030BD5FEA545C05D151
:1003C0004000494128BF41F0004130BD14F5800490
:1003D0003CBF01F5801130BD01F0004545F0FE4104
:1003E00041F470014FF0000030BD7FEA645C1ABF39
:1003F000194610467FEA655C1CBF0B46024650EA70
:10040000013406BF52EA033591EA030F41F400219B
:1004100030BD00BF90F0000F04BF0021704730B521
:100420004FF4806404F132044FF000054FF00001F6
:1004300050E700BF90F0000F04BF0021704730B5B7
:100440004FF4806404F1320410F0004548BF40428C
:100450004FF000013EE700BF42004FEAE2014FEAE1
:1004600031014FEA02701FBF12F07F4393F07F4FBC
:1004700081F06051704732F07F4208BF704793F0BF
:100480007F4F04BF41F40021704730B54FF46074D2
:1004900001F0004521F000411CE700BF50EA0102D5
:1004A00008BF704730B54FF000050AE050EA01027E
:1004B00008BF704730B511F0004502D5404261EBEE
:1004C00041014FF4806404F132045FEA915C3FF42F
:1004D000D8AE4FF003025FEADC0C18BF03325FEACC
:1004E000DC0C18BF033202EBDC02C2F1200300FA7D
:1004F00003FC20FA02F001FA03FE40EA0E0021FAA2
:1005000002F11444BDE600BF4FF0FF3C06E000BF1F
:100510004FF0010C02E000BF4FF0010C4DF804CD8C
:100520004FEA410C7FEA6C5C4FEA430C18BF7FEA4C
:100530006C5C1BD001B050EA410C0CBF52EA430C7A
:1005400091EA030F02BF90EA020F0020704710F1FA
:10055000000F91EA030F58BF994208BF90422CBF89
:10056000D8176FEAE37040F0010070474FEA410C82
:100570007FEA6C5C02D150EA013C07D14FEA430CA0
:100580007FEA6C5CD6D152EA033CD3D05DF8040B11
:10059000704700BF8446104662468C461946634643
:1005A00000E000BF01B5FFF7B7FF002848BF10F11A
:1005B000000F01BD4DF808EDFFF7F4FF0CBF01205F
:1005C00000205DF808FB00BF4DF808EDFFF7EAFFDB
:1005D00034BF012000205DF808FB00BF4DF808ED96
:1005E000FFF7E0FF94BF012000205DF808FB00BF8B
:1005F0004DF808EDFFF7CEFF94BF012000205DF815
:1006000008FB00BF4DF808EDFFF7C4FF34BF012021
:1006100000205DF808FB00BF4FEA4102B2F1E04361
:1006200024BFB3F5001CDCF1FE5C0DD901F0004CD9
:100630004FEAC0024CEA5070B2F1004F40EB830029
:1006400008BF20F00100704711F0804F21D113F155
:100650003872BCBF01F00040704741F480114FEA8E
:100660005252C2F11802C2F1200C10FA0CF320FA17
:1006700002F018BF40F001004FEAC1234FEAD32334
:1006800003FA0CFC40EA0C0023FA02F34FEA43039E
:10069000CCE77FEA625307D150EA01331EBF4FF027
:1006A000FE4040F44000704701F0004040F0FE4042
:1006B00040F40000704700BF53B94AB9002908BF91
:1006C00000281CBF4FF0FF314FF0FF3000F00CB896
:1006D000ADF1080C6DE904CE06F0C4FCDDF804E0D1
:1006E000DDE9022304B07047704700BF000000003E
:1006F00001F0FF01102A2BDB10F0070F08D010F8D3
:10070000013B013A8B422DD010F0070F42B3F6D1D6
:10071000F0B441EA012141EA014122F007047FF0EF
:1007200000070023F0E80256083C85EA010586EA46
:10073000010685FA47F5A3FA87F586FA47F6A5FA82
:1007400087F68EB9EED1F0BC01F0FF0102F007028E
:1007500032B110F8013B013A83EA010313B1F8D139
:100760000020704701387047002D06BF354603381A
:10077000073815F0010F07D1013015F4807F02BF53
:10078000013015F4C03F0130F0BC0138704700BFA4
:10079000034613F8012B002AFBD1181A01387047C1
:1007A00070B54FF0FF0C4CF4E06C1CEA11541DBF07
:1007B0001CEA135594EA0C0F95EA0C0F00F0DEF8D2
:1007C0002C4481EA030621EA4C5123EA4C5350EAB7
:1007D000013518BF52EA033541F4801143F4801308
:1007E00038D0A0FB02CE4FF00005E1FB02E506F099
:1007F0000042E0FB03E54FF00006E1FB03569CF0EE
:10080000000F18BF4EF0010EA4F1FF04B6F5007FF3
:1008100064F5407404D25FEA4E0E6D4146EB060665
:1008200042EAC62141EA55514FEAC52040EA5E50EE
:100830004FEACE2EB4F1FD0C88BFBCF5E06F1ED898
:10084000BEF1004F08BF5FEA500E50F1000041EBCF
:10085000045170BD06F0004646EA010140EA02007C
:1008600081EA0301B4EB5C04C2BFD4EB0C0541EA9E
:10087000045170BD41F480114FF0000E013C00F3B3
:10088000AB8014F1360FDEBF002001F0004170BDD7
:10089000C4F10004203C35DA0C341BDC04F11404F0
:1008A000C4F1200500FA05F320FA04F001FA05F27C
:1008B00040EA020001F0004221F0004110EBD37049
:1008C00021FA04F642EB06015EEA430E08BF20EA75
:1008D000D37070BDC4F10C04C4F1200500FA04F318
:1008E00020FA05F001FA04F240EA020001F00041AA
:1008F00010EBD37041F100015EEA430E08BF20EA1D
:10090000D37070BDC4F1200500FA05F24EEA020E64
:1009100020FA04F301FA05F243EA020321FA04F093
:1009200001F0004121FA04F220EA020000EBD3704A
:100930005EEA430E08BF20EAD37070BD94F0000F4A
:100940000FD101F00046400041EB010111F4801F7E
:1009500008BF013CF7D041EA060195F0000F18BF2F
:10096000704703F00046520043EB030313F4801F6B
:1009700008BF013DF7D043EA0603704794EA0C0F25
:100980000CEA135518BF95EA0C0F0CD050EA41063B
:1009900018BF52EA4306D1D181EA030101F00041B8
:1009A0004FF0000070BD50EA410606BF10461946E0
:1009B00052EA430619D094EA0C0F02D150EA0136EC
:1009C00013D195EA0C0F05D152EA03361CBF10462D
:1009D00019460AD181EA030101F0004141F0FE41CC
:1009E00041F470014FF0000070BD41F0FE4141F450
:1009F000780170BD70B54FF0FF0C4CF4E06C1CEA50
:100A000011541DBF1CEA135594EA0C0F95EA0C0F04
:100A100000F0A7F8A4EB050481EA030E52EA0335BF
:100A20004FEA013100F088804FEA03334FF08055E0
:100A300045EA131343EA12634FEA022245EA11150D
:100A400045EA10654FEA00260EF000419D4208BFBE
:100A5000964244F1FD0404F5407402D25B084FEA6B
:100A60003202B61A65EB03055B084FEA32024FF417
:100A700080104FF4002CB6EB020E75EB030E22BF74
:100A8000B61A754640EA0C005B084FEA3202B6EB34
:100A9000020E75EB030E22BFB61A754640EA5C00E3
:100AA0005B084FEA3202B6EB020E75EB030E22BF73
:100AB000B61A754640EA9C005B084FEA3202B6EB74
:100AC000020E75EB030E22BFB61A754640EADC0033
:100AD00055EA060E18D04FEA051545EA16754FEA95
:100AE00006164FEAC30343EA52734FEAC2025FEAB3
:100AF0001C1CC0D111F4801F0BD141EA00014FF042
:100B000000004FF0004CB6E711F4801F04BF014312
:100B10000020B4F1FD0C88BFBCF5E06F3FF6AFAE2E
:100B2000B5EB030C04BFB6EB020C5FEA500C50F1BE
:100B3000000041EB045170BD0EF0004E4EEA113141
:100B400014EB5C04C2BFD4EB0C0541EA045170BD48
:100B500041F480114FF0000E013C90E645EA060E8C
:100B60008DE60CEA135594EA0C0F08BF95EA0C0FBA
:100B70003FF43BAF94EA0C0F0AD150EA01347FF402
:100B800034AF95EA0C0F7FF425AF104619462CE7D9
:100B900095EA0C0F06D152EA03353FF4FDAE10463C
:100BA000194622E750EA410618BF52EA43067FF48D
:100BB000C5AE50EA41047FF40DAF52EA43057FF41D
:100BC000EBAE12E74FEA410C7FEA6C5C02D150EACF
:100BD000013C0AD14FEA430C7FEA6C5C02D152EA35
:100BE000033C02D14FF0000070474FF00100704706
:100BF0004FEA410212F5001215D211D56FF4787345
:100C0000B3EB625212D94FEAC12343F0004343EAE7
:100C1000505311F0004F23FA02F018BF40427047C2
:100C20004FF00000704750EA013005D111F000404C
:100C300008BF6FF0004070474FF00000704700BFE2
:100C40000348044B834202D0034B03B1184770475B
:100C5000E0010020E0010020000000000548064BF4
:100C60001B1AD90F01EBA301491002D0034B03B1AA
:100C700018477047E0010020E0010020000000005C
:100C800010B5064C237843B9FFF7DAFF044B13B1D4
:100C90000448AFF300800123237010BDE001002061
:100CA00000000000749D000808B5054B1BB1054904
:100CB0000548AFF30080BDE80840FFF7CFBF00BF95
:100CC00000000000E4010020749D00087047704798
:100CD00008B54FF0E0231B6901F01CFB012800D18F
:100CE00008BD00F037F9FBE7034B0360034B0B60D3
:100CF00080231360704700BF58080020580600206A
:100D0000034B0360034B0B604FF480731360704719
:100D1000FC050020FC01002000F1080343604FF0B7
:100D2000FF328260C36003610023036070470023C9
:100D30000361704743684B609A688A6051609960AC
:100D40000861036801330360704730B40D68B5F182
:100D5000FF3F11D000F108031C465B681A68AA42E5
:100D6000FAD963684B6099608C60616008610368C0
:100D70000133036030BC70470469F2E703694168DE
:100D800082688A60416851605A68824204BF826802
:100D90005A60002202611A68013A1A6018687047A6
:100DA00082B0002301930D4B1B68B3F1FF3F08D0C5
:100DB0004FF0500383F31188BFF36F8FBFF34F8F52
:100DC000FEE74FF0500383F31188BFF36F8FBFF33B
:100DD0004F8F019B002BFCD002B070470000002019
:100DE00008480068006880F308884FF0000080F32E
:100DF000148862B661B6BFF34F8FBFF36F8F00DF09
:100E000000BF000008ED00E0DFF80C00016841F4CD
:100E1000700101607047000088ED00E04FF08073C2
:100E200040F8043C21F0010140F8081C054B40F853
:100E30000C3C40F8202C6FF0020340F8243C44386E
:100E4000704700BFA10D0008000000000000000076
:100E5000074B19680868B0E8F04F80F30988BFF3C2
:100E60006F8F4FF0000080F311887047AFF3008060
:100E7000144A00204FF0500383F31188BFF36F8FA3
:100E8000BFF34F8F0B4A136801331360012B00D05F
:100E900070474FF0E023D3F8043D13F0FF0FF7D075
:100EA0004FF0500383F31188BFF36F8FBFF34F8F61
:100EB000FEE700BF00000020094B1B6843B94FF05C
:100EC000500383F31188BFF36F8FBFF34F8FFEE79B
:100ED000013B034A13600BB983F31188704700BFCD
:100EE00000000020000000000000000000000000E2
:100EF000EFF30980BFF36F8F154B1A681EF0100FC8
:100F000008BF20ED108A20E9F04F10602DE909009C
:100F10004FF0500080F31188BFF34F8FBFF36F8FF6
:100F200001F0DAF84FF0000080F3118809BC19686D
:100F30000868B0E8F04F1EF0100F08BFB0EC108A40
:100F400080F30988BFF36F8F704700BFAFF3008055
:100F5000144A002008B54FF0500383F31188BFF303
:100F60006F8FBFF34F8F00F077FF28B14FF0E02372
:100F70004FF08052C3F8042D002383F3118808BD7D
:100F80004FF0E022002313619361054B1B68054974
:100F9000A1FB03139B09013B5361072313617047B6
:100FA00004000020D34D62104FF0E023D3F8002D51
:100FB0003E4B9A423BD04FF0E023D3F8002D3C4B00
:100FC0009A423DD030B583B03A4B1A78D2B20192F2
:100FD000FF221A701B78DBB28DF803309DF80330C6
:100FE00003F05003344A1370344B07221A609DF803
:100FF000033013F0800F11D006229DF803305B0000
:10100000DBB28DF803309DF803301146013A13F03E
:10101000800FF2D103291CD0284B19604FF05003E8
:1010200083F31188BFF36F8FBFF34F8FFEE74FF04D
:10103000500383F31188BFF36F8FBFF34F8FFEE729
:101040004FF0500383F31188BFF36F8FBFF34F8FBF
:10105000FEE71A4B4FF440721A60019BDBB2154A4F
:1010600013704FF0E024D4F8203D43F47003C4F82B
:10107000203DD4F8203D43F07043C4F8203DFFF7F5
:101080007FFF00250E4B1D60FFF7BEFED4F8343FF6
:1010900043F04043C4F8343FFFF7A2FE01F01CF8D0
:1010A000FFF77EFE284603B030BD00BF71C20F417E
:1010B00070C20F4100E400E0B8080020B40800202E
:1010C00000000020EFF305830F2B0FD9114A9B5C22
:1010D000DBB2114A12789A4208D94FF0500383F3D9
:1010E0001188BFF36F8FBFF34F8FFEE74FF0E02300
:1010F000D3F80C3D03F4E063084A1268934208D920
:101100004FF0500383F31188BFF36F8FBFF34F8FFE
:10111000FEE77047F0E300E0B8080020B4080020C4
:1011200010B4154B1A461B688342FBD3546811193F
:1011300088420AD0446801198B4210D00360824271
:1011400000D010605DF8044B704741682144516045
:101150000C4611448B4201D01360F3E71046074957
:1011600009688B4205D05B682344436013681B68A1
:10117000E4E70B46E2E700BFD4080020D0080020D7
:10118000F8B5044600F05AFE444B1B68B3B1444B1B
:101190001D6825427DD1002C7BD004F1080214F09B
:1011A000070F1CBF22F007020832002A71D03D4B06
:1011B0001E6896426DD33C490C6827E03B4A12F00A
:1011C000070F07D0D11D21F0070102F57052531A05
:1011D0000A4601E04FF47053334802600021416039
:1011E0001344083B23F007032C480360596019603F
:1011F000991A516013602E4B19602A4B1960284BC5
:101200004FF000421A60C2E721461C4663689342D1
:1012100002D22368002BF7D1204B1B68A34238D0A1
:101220000F68083723680B6063689B1A102B10D96E
:10123000A01810F0070F08D04FF0500383F3118867
:10124000BFF36F8FBFF34F8FFEE743606260FFF71E
:1012500067FF6368F61A134A1660154A12689642C9
:101260003CBF134A16602B43636000232360114A7E
:1012700013680133136000F089FE17F0070F0BD0DD
:101280004FF0500383F31188BFF36F8FBFF34F8F7D
:10129000FEE700F07BFE00273846F8BDD0080020AE
:1012A000BC080020CC080020D4080020DC08002066
:1012B000C8080020C4080020002833D010B5044618
:1012C00050F8043C184A1268134208D14FF05003FA
:1012D00083F31188BFF36F8FBFF34F8FFEE750F892
:1012E000081C41B14FF0500383F31188BFF36F8F97
:1012F000BFF34F8FFEE723EA020340F8043C00F0FF
:101300009DFD0A4A54F8043C11680B441360A4F193
:101310000800FFF705FF064A13680133136000F069
:1013200035FE10BD704700BFBC080020CC0800206F
:10133000C008002010B50446FFF79CFDA46BFFF722
:10134000BBFDB4FA84F0400910BD70B504461546E3
:10135000866B026C5AB903681BB100200136A66384
:1013600070BD806800F0E6FF0023A360F6E76DB96A
:10137000406806F0B8FE6368226C13446360A2689C
:10138000934219D3236863602846E7E7C06806F0F4
:10139000AAFE226C5142E3689B1AE36022689342E2
:1013A00002D2A3680B44E360022D01D00020D5E7F0
:1013B00026B1013E0020D1E72846CFE70020CDE747
:1013C0000346026C6AB110B50846D9681144D96069
:1013D0009C68A14224BF1968D960D96806F083FED1
:1013E00010BD704770B50546FFF744FD95F84540C0
:1013F00064B2002C0FDD05F1240602E0013C64B26A
:101400004CB16B6A3BB1304600F0ECFE0028F5D0E1
:1014100000F07AFFF2E7FF2385F84530FFF74CFD37
:10142000FFF728FD95F8444064B2002C0FDD05F16C
:10143000100602E0013C64B24CB12B693BB130466E
:1014400000F0D0FE0028F5D000F05EFFF2E7FF23A9
:1014500085F84430FFF730FD70BD38B5E0B10D467A
:101460000446FFF707FD2268216CE36B01FB03F3E1
:10147000D018A0600020A06362605B1A1A44E2608A
:10148000FF2384F8443084F84530FDB9236963B9FB
:10149000FFF712FD012038BD4FF0500383F3118890
:1014A000BFF36F8FBFF34F8FFEE704F1100000F022
:1014B00099FE0028ECD04FF0E0234FF08052C3F8A3
:1014C000042DBFF34F8FBFF36F8FE1E704F11000DE
:1014D000FFF722FC04F12400FFF71EFCD8E740B917
:1014E0004FF0500383F31188BFF36F8FBFF34F8F1B
:1014F000FEE710B582B01C46034654B192B1D9B98B
:101500004FF0500383F31188BFF36F8FBFF34F8FFA
:10151000FEE74FF0500383F31188BFF36F8FBFF3E3
:101520004F8FFEE741B34FF0500383F31188BFF3B1
:101530006F8FBFF34F8FFEE7502001900198502826
:1015400008D04FF0500383F31188BFF36F8FBFF3C0
:101550004F8FFEE70198012084F846002260E36384
:10156000216401462046FFF778FF9DF8103084F88B
:101570004C30204602B010BD50220192019A502AF0
:10158000DFD1019A2246E6E72DE9F04385B00192CA
:1015900088B10E461D460446B1B1022D20D1E36B41
:1015A000012B1DD04FF0500383F31188BFF36F8FD1
:1015B000BFF34F8FFEE74FF0500383F31188BFF363
:1015C0006F8FBFF34F8FFEE7036C002BE5D04FF01A
:1015D000500383F31188BFF36F8FBFF34F8FFEE784
:1015E00000F098FE804650B9019B53B14FF0500374
:1015F00083F31188BFF36F8FBFF34F8FFEE74FF078
:101600000008002737E02A4631462046FFF79DFEB6
:10161000636A83B948B14FF0E0234FF08052C3F8BA
:10162000042DBFF34F8FBFF36F8FFFF745FC0120F1
:1016300005B0BDE8F08304F1240000F0D3FD0028DC
:10164000F3D04FF0E0234FF08052C3F8042DBFF3E6
:101650004F8FBFF36F8FE8E7FFF72EFC0020E7E71F
:1016600002A800F003FE14E02046FFF7BBFE00F0E6
:101670008DFC4FF00108FFF7FDFBA26BE36B9A4274
:10168000C1D3022DBFD0019B002BE5D0B8F1000FD4
:10169000E6D0FFF711FC00F0D1FBFFF7EBFB94F86D
:1016A000442052B2B2F1FF3F08BF84F8447094F86E
:1016B000452052B2B2F1FF3F08BF84F84570FFF7F2
:1016C000FBFB01A902A800F0DDFD00BBFFF7D2FB88
:1016D000D4F83890D4F83C80FFF7EEFBC145C3D175
:1016E000019904F1100000F047FD2046FFF77AFE53
:1016F00000F04CFC0028BCD14FF0E0234FF08052AA
:10170000C3F8042DBFF34F8FBFF36F8FB1E72046AF
:10171000FFF768FE00F03AFC002089E72DE9F84366
:1017200090B10F4616461C460546B1B1022C20D199
:10173000EB6B012B1DD04FF0500383F31188BFF3E7
:101740006F8FBFF34F8FFEE74FF0500383F3118885
:10175000BFF36F8FBFF34F8FFEE7036C002BE5D015
:101760004FF0500383F31188BFF36F8FBFF34F8F98
:10177000FEE7FFF7A7FCEFF311884FF0500383F368
:101780001188BFF36F8FBFF34F8FAA6BEB6B9A4239
:1017900006D3022C04D0002088F31188BDE8F8831A
:1017A00095F845904FFA89F9AB6B224639462846A1
:1017B000FFF7CBFDB9F1FF3F06D009F101035BB2A2
:1017C00085F845300120E7E76B6A0BB90120E3E7B4
:1017D00005F1240000F006FD18B126B101203060AB
:1017E000DAE70120D8E70120D6E72DE9F04184B0FF
:1017F000019288B10E460446B9B100F08BFD8046D7
:10180000F8B9019BFBB14FF0500383F31188BFF38C
:101810006F8FBFF34F8FFEE74FF0500383F31188B4
:10182000BFF36F8FBFF34F8FFEE7036C002BE4D045
:101830004FF0500383F31188BFF36F8FBFF34F8FC7
:10184000FEE74FF00008002738E031462046FFF75A
:10185000B7FD013DA56323692BB9FFF72DFB0120DF
:1018600004B0BDE8F08104F1100000F0BBFC0028DA
:10187000F3D04FF0E0234FF08052C3F8042DBFF3B4
:101880004F8FBFF36F8FE8E7FFF716FB0020E7E706
:1018900002A800F0EBFC1CE02046FFF7A3FD00F0DF
:1018A00075FB09E02046FFF79DFD00F06FFB204629
:1018B000FFF740FD002846D14FF00108FFF7DAFAA4
:1018C000A56B002DC1D1019B002BDDD0B8F1000F1D
:1018D000DED0FFF7F1FA00F0B1FAFFF7CBFA94F897
:1018E00044305BB2B3F1FF3F08BF84F8447094F812
:1018F00045305BB2B3F1FF3F08BF84F84570FFF796
:10190000DBFA01A902A800F0BDFC0028CAD12046DC
:10191000FFF710FD0028BFD0019904F1240000F06A
:101920002BFC2046FFF75EFD00F030FB0028C3D102
:101930004FF0E0234FF08052C3F8042DBFF34F8FD8
:10194000BFF36F8FB8E700208AE7000010B40023D0
:10195000084C54F833202AB10133082BF9D15DF833
:10196000044B7047034A42F8331002EBC302506045
:10197000F5E700BFDC44002070B504460D4616466E
:10198000FFF778FA94F844305BB2B3F1FF3F04BF3D
:10199000002384F8443094F845305BB2B3F1FF3F44
:1019A00004BF002384F84530FFF786FAA36B1BB110
:1019B0002046FFF717FD70BD3246294604F124008A
:1019C00000F0F2FBF4E70000084B1B681B6823B92A
:1019D000074B4FF0FF321A607047044B1B68DB68FF
:1019E000DB685A68024B1A60704700BF88450020C8
:1019F000204500202DE9F047064689461F46DDF8C0
:101A000024800A9C95002A46A521206B06F0F2FA54
:101A1000043D236B1D4425F00705B9F1000F37D0B5
:101A200009F1FF3C04F1330E09F10F011CF8012FFD
:101A30000EF8012F0AB18C45F8D1002384F8433009
:101A4000089B372B28BF37239946E362E3644FF0A6
:101A5000000AC4F850A0201DFFF769F904F118002E
:101A6000FFF765F92461C9F13803A3616462C4F822
:101A700054A084F858A03A4631462846FFF7CEF9DC
:101A80002060B8F1000F01D0C8F80040BDE8F08731
:101A9000002384F83430D3E770B50546FFF7EAF940
:101AA000304A1368013313602F4B1B68002B34D06E
:101AB0002E4B1B683BB92C4B1B68DA6AEB6A9A42C7
:101AC0009CBF294B1D602A4A1368013313606B6465
:101AD000E86A284B1B68984284BF264B186000EBCD
:101AE0008000291D244B03EB8000FFF723F9FFF74B
:101AF000E3F91E4B1B687BB11B4B1B68DA6AEB6A70
:101B00009A4209D24FF0E0234FF08052C3F8042DDF
:101B1000BFF34F8FBFF36F8F70BD134B1D60136802
:101B2000012BD0D1144C04F58C662046FFF7F4F855
:101B30001434B442F9D1114E3046FFF7EDF8104C91
:101B40002046FFF7E9F80F48FFF7E6F80E48FFF7E1
:101B5000E3F80E48FFF7E0F80D4B1E600D4B1C60DC
:101B6000B1E700BF40450020144A00203445002062
:101B70002445002038450020B4450020A045002021
:101B80008C450020704500205C4500204445002025
:101B9000884500208445002010B5044690F859304F
:101BA00063B1012B11D0022B0ED04FF0500383F301
:101BB0001188BFF36F8FBFF34F8FFEE7006BFFF706
:101BC0007BFB2046FFF778FB10BDFFF775FBFBE7BB
:101BD00080B5154C154F164EDFF858802368A3B119
:101BE000FFF748F9FB68DD68281DFFF7C7F8336881
:101BF000013B33602368013B2360FFF75DF9284612
:101C0000FFF7CAFF2368002BEAD1D8F80030012B78
:101C1000E4D94FF0E0234FF08052C3F8042DBFF316
:101C20004F8FBFF36F8FD9E7584500205C450020E8
:101C300040450020B445002070B504460D461F4BBA
:101C40001E681F4B18680430FFF798F8B4F1FF3F87
:101C50000DD034441A4B1B685C60A6421FD9194B47
:101C60001868174B19680431FFF76FF870BD7DB91C
:101C7000731E134A126853609E42F0D8124B1868C4
:101C80000F4B19680431FFF760F8104B1B68EDE744
:101C90000B4B196804310E48FFF74CF8E6E70A4B86
:101CA0001868074B19680431FFF74FF8074B1B689A
:101CB000A342DBD9054B1C60D8E700BF3C450020A0
:101CC000144A00208445002088450020204500203B
:101CD0004445002030B587B00B9C7CB10C9DB5B15C
:101CE0005C250495049D5C2D1AD04FF0500383F3BE
:101CF0001188BFF36F8FBFF34F8FFEE74FF0500394
:101D000083F31188BFF36F8FBFF34F8FFEE74FF060
:101D1000500383F31188BFF36F8FBFF34F8FFEE73C
:101D2000049D0C9D2C63022485F8594000240394E3
:101D3000029505AC01940A9C0094FFF75BFE0C9899
:101D4000FFF7AAFE059807B030BD2DE9F04385B036
:101D50000746884614461E469000FFF711FA08B35E
:101D600081465C20FFF70CFA0546A8B1C0F8309018
:101D7000002380F85930039302900D9B01930C9B34
:101D800000933346224641463846FFF733FE284645
:101D9000FFF782FE012007E04846FFF78DFA4FF07B
:101DA000FF3001E04FF0FF3005B0BDE8F0830000E8
:101DB00010B588B000240594069407AA06A905A8C2
:101DC000FEF792FF059B0293069B01930094234626
:101DD000079A15491548FFF77DFF10B300F0F2FB95
:101DE00001280BD0B0F1FF3F1BD14FF0500383F31C
:101DF0001188BFF36F8FBFF34F8FFEE74FF0500393
:101E000083F31188BFF36F8FBFF34F8F084B4FF0F1
:101E1000FF321A60074B01221A60074B1C60FFF764
:101E2000C3F808B010BD00BF909D0008D11B00088A
:101E300020450020344500203C450020024A13681C
:101E400001331360704700BF1C450020014B186828
:101E5000704700BF3C4500202DE9F047404B1B6810
:101E6000002B75D13F4B1E6801361E60C6B93E4B34
:101E70001B681B6843B14FF0500383F31188BFF315
:101E80006F8FBFF34F8FFEE7374A1168374B1868E3
:101E900010601960364A136801331360FFF794FD30
:101EA000344B1B68B34241D82F4B1B681B683BB1B6
:101EB0000025DFF8B480DFF8D090DFF8C0A022E082
:101EC00000252C4B4FF0FF321A6030E0294A136096
:101ED0002DE0E06AD9F80030984288BFC9F80000C8
:101EE00000EB800039460AEB8000FEF723FF224B0F
:101EF0001B68E26ADB6A9A4228BF0125D8F80030E5
:101F00001B68002BDDD0D8F80030DB68DC68636824
:101F10009E42DBD3271D3846FEF730FFA36A002B15
:101F2000D7D004F11800FEF729FFD2E70025124BA5
:101F30001B68DB6A03EB83039B00104AD358022B18
:101F400028BF01250E4B1B68002B18BF012504E09C
:101F50000C4A13680133136000252846BDE8F0875A
:101F60001C4500203C450020884500208445002079
:101F70002845002020450020144A0020B4450020B8
:101F80002C4500203045002038450020374B1B6889
:101F900043B94FF0500383F31188BFF36F8FBFF342
:101FA0004F8FFEE72DE9F041FEF764FF2F4B1A68D3
:101FB000013A1A601B68002B4FD12D4B1B68002B78
:101FC00051D02C4B1B6843B32A4E2B4FDFF8B880FF
:101FD00001E03368FBB1F368DC6804F11800FEF738
:101FE000CDFE251D2846FEF7C9FEE06A3B689842F3
:101FF00088BF386000EB8000294608EB8000FEF7C0
:1020000099FE1E4B1B68E26ADB6A9A42E1D31C4BC5
:1020100001221A60DDE7FFF7D7FC1A4B1C686CB190
:10202000174E012501E0013C05D0FFF715FF002800
:10203000F9D03560F7E7134B00221A60104B1C688B
:1020400064B14FF0E0234FF08052C3F8042DBFF38A
:102050004F8FBFF36F8F012400E00024FEF72CFFA9
:102060002046BDE8F0810024F8E700BF1C450020B1
:10207000404500207045002038450020144A0020CB
:102080002C45002030450020B445002010B5A8B1F3
:102090000446104B1B6843B14FF0500383F3118883
:1020A000BFF36F8FBFF34F8FFEE7FFF7C7FE00212F
:1020B0002046FFF7C1FDFFF769FF48B94FF0E02365
:1020C0004FF08052C3F8042DBFF34F8FBFF36F8FD3
:1020D00010BD00BF1C450020224B1B681BB1224BCA
:1020E00001221A607047204B00221A601F4B1B68A8
:1020F00003EB830292001E498A588AB93BB1013B27
:1021000003EB830251F8222052B9002BF7D14FF094
:10211000500383F31188BFF36F8FBFF34F8FFEE738
:10212000134A03EB830102EB810148684068486071
:1021300003EB830102EB8102083290420BD003EBE8
:1021400083010B4A02EB81025268D168094A11608F
:10215000064A136070474068054A02EB81025060EE
:10216000EDE700BF1C4500202C450020384500202D
:10217000B4450020144A002058B110B50C46094A55
:1021800011681831FEF7E1FD01212046FFF754FDEB
:1021900010BD4FF0500383F31188BFF36F8FBFF36F
:1021A0004F8FFEE7144A002038B578B10D4614462B
:1021B0000B4A11681831FEF7BDFD002C21460CBFFB
:1021C00028464FF0FF30FFF737FD38BD4FF0500382
:1021D00083F31188BFF36F8FBFF34F8FFEE700BF0C
:1021E000144A002038B5C368DC682CB304F1180524
:1021F0002846FEF7C3FD174B1B6833BB251D284639
:10220000FEF7BCFDE06A144B1B68984284BF124B7A
:10221000186000EB80002946104B03EB8000FEF7AE
:1022200089FD0F4B1B68E26ADB6A9A4283BF01207B
:102230000C4B1860002038BD4FF0500383F3118819
:10224000BFF36F8FBFF34F8FFEE729460648FEF7B7
:1022500071FDE6E71C45002038450020B44500200C
:10226000144A00202C45002070450020034B1B68B9
:102270000360034B1B684360704700BF2845002084
:102280003C450020D0B170B50C460546F9B1FEF7CB
:10229000F1FD1B4B1A682368B3F1FF3F28D0696832
:1022A000184800682E68864201D0914225D9501AFC
:1022B000834215D80023236001241AE04FF0500315
:1022C00083F31188BFF36F8FBFF34F8FFEE74FF09B
:1022D000500383F31188BFF36F8FBFF34F8FFEE777
:1022E0009B1A0B4423602846FFF7C0FF002400E040
:1022F0000024FEF7E1FD204670BD0124F9E700BF90
:102300003C45002028450020014B01221A607047FF
:102310002C450020054B1B6833B1054B1868B0FAFB
:1023200080F040094000704701207047344500208C
:102330001C45002000283BD038B504461E4B1B68C6
:10234000834208D04FF0500383F31188BFF36F8F9F
:10235000BFF34F8FFEE7036D43B94FF0500383F394
:102360001188BFF36F8FBFF34F8FFEE7013B03650B
:10237000C16AC26C91421DD00BB1002038BD051D51
:102380002846FEF7FBFCE06CE062C0F13803A36175
:102390000A4B1B68984284BF084B186000EB800012
:1023A0002946074B03EB8000FEF7C4FC0120E5E75C
:1023B000002070470020E1E7144A00203845002043
:1023C000B445002038B505460C46FEF753FD1A4BC0
:1023D0001B685B6D2BB9184B1B68012283F85820D2
:1023E000ACB9FEF769FDFEF745FD134B1B685C6D4C
:1023F00024B1DDB1104B1B6800225A650E4B1B68DF
:10240000002283F85820FEF757FD204638BD1146BC
:102410002046FFF711FC4FF0E0234FF08052C3F845
:10242000042DBFF34F8FBFF36F8FDAE7024B1B68AA
:10243000621E5A65E2E700BF144A0020F8B5E0B119
:102440000D460446FEF73EFEEFF311834FF05002B7
:1024500082F31188BFF36F8FBFF34F8F1E4694F83E
:102460005830DBB2022284F85820626D0132626576
:10247000012B0BD086F31188F8BD4FF0500383F386
:102480001188BFF36F8FBFF34F8FFEE7A36A43B18D
:102490004FF0500383F31188BFF36F8FBFF34F8F5B
:1024A000FEE7144B1B68FBB9271D3846FEF766FC98
:1024B000E06A114B1B68984284BF0F4B186000EB19
:1024C000800039460D4B03EB8000FEF733FC0C4BCC
:1024D0001B68E26ADB6A9A42CCD90DB101232B60FA
:1024E000084B01221A60C5E704F118010648FEF7FF
:1024F00021FCECE71C45002038450020B4450020B5
:10250000144A00202C4500207045002008B5416089
:10251000006191420CD8D21A83699A4201D30120FA
:1025200008BD011D094B1868FEF70FFC0020F7E7F6
:102530009A4201D2994206D2011D054B1868FEF756
:1025400004FC0020ECE70120EAE700BF144B002068
:10255000184B002030B583B0FEF78CFC114B1B6884
:102560001BB1FEF7A9FC03B030BD0F4D2846FEF7A6
:10257000D3FB0E4C2046FEF7CFFB0D4B1D600D4BE1
:102580001C60002300930C4B0C4A10210A20FEF71C
:10259000A6FF044B18600028E3D00949FFF7D6F9DD
:1025A000DFE700BF104B0020304B00201C4B002009
:1025B000184B0020144B0020184A0020684A0020C5
:1025C000989D000810B588B0FFF7C4FF124B1B6838
:1025D000CBB100240594069407AA06A905A8FEF726
:1025E0008FFB059B0293069B0193022300932346D6
:1025F000079A0A490A48FFF76DFB0A4B186010B1A9
:10260000012008B010BD4FF0500383F31188BFF3D1
:102610006F8FBFF34F8FFEE7104B0020A09D000887
:10262000312700080C4B0020D8B19C4603461548C2
:10263000006828B300B585B0009101920293052986
:1026400018DCFFF767FE02284FF000030CBF069A64
:102650001A4669460B480068FEF796FF05B05DF81C
:1026600004FB4FF0500383F31188BFF36F8FBFF368
:102670004F8FFEE7002362466946FFF74FF8EDE70C
:1026800000207047104B00202DE9F04383B08046B6
:10269000FFF7DCFB0746234B1B68834208D8002367
:1026A000C8F800301F4B1F60384603B0BDE8F08308
:1026B0001D4E33681A686AB3DB68D3F80090DC6893
:1026C000251D2846FEF75AFB236A2046984794F8B2
:1026D000283013F0040FECD0A3694B44994507D27E
:1026E000636024612946104B1868FEF72EFBE0E773
:1026F000002100910B464A462046FFF795FF00282F
:10270000D7D14FF0500383F31188BFF36F8FBFF31E
:102710004F8FFEE7054A10680349086013600123E4
:10272000BEE700BF084B0020184B0020144B0020D0
:102730002DE9F04389B07C4E7C4F7D4D3368D3F852
:102740000080B8F1000F00F0CB80DB68D3F8008088
:10275000FFF774FB04A8FFF797FF0446049A002ACA
:1027600036D1804500F2CB80FFF710FC3368DB6880
:10277000D3F80C9009F10400FEF700FB99F828301B
:1027800013F0040F08D123F0010389F82830D9F899
:102790002030484698471DE0D9F818104346224695
:1027A00041444846FFF7B2FE0028F0D000210091D6
:1027B0000B4642464846FFF737FF0028E7D14FF067
:1027C000500383F31188BFF36F8FBFF34F8FFEE782
:1027D000FFF7DCFB002406E007990698059B984765
:1027E000049B002B09DA224604A92868FEF7FDFFA6
:1027F0000028A3D0049B002BEEDBDDF81880D8F86E
:1028000014301BB108F10400FEF7B8FA03A8FFF773
:102810003BFF049B092BE6D8DFE803F005050533F1
:102820003A540505333A98F8283043F0010388F804
:102830002830059BD8F81810024619444046FFF787
:1028400065FE0028CFD0D8F820304046984798F849
:10285000283013F0040FC6D0D8F8182000210091BA
:102860000B46059802444046FFF7DEFE0028BAD129
:102870004FF0500383F31188BFF36F8FBFF34F8F77
:10288000FEE798F8283023F0010388F82830AAE7FB
:1028900098F8283043F0010388F828300599C8F8E3
:1028A000181031B10346024601444046FFF72EFEA0
:1028B00099E74FF0500383F31188BFF36F8FBFF395
:1028C0004F8FFEE798F8283013F0020F04D023F062
:1028D000010388F8283086E74046FEF7EDFC82E7E2
:1028E000FFF7ACFA04A8FFF7CFFE0446049B002BC9
:1028F0007FF46EAF3B681A68B2FA82F25209A8EB15
:1029000004012868FFF738F8FFF740FB00287FF440
:1029100061AF4FF0E0234FF08052C3F8042DBFF3B6
:102920004F8FBFF36F8F55E7184B0020144B0020DB
:10293000104B0020002343628362C362036343633E
:10294000704730EE600AD0ED007A20EE277AD0EDA5
:10295000086AD0ED017AB6EE006A67EE867A67EE15
:10296000A67A90ED0A6A30EE066A67EE867A90EDF6
:10297000096A77EE867AC0ED097A90ED076AF4EE7F
:10298000C67AF1EE10FA37DD80ED096A90ED036A40
:1029900036EE066AD0ED027A77EEA77AD0ED0C5AC1
:1029A00070EEE55A67EEA57A76EE665A90ED0B5A10
:1029B00065EE855A77EEA57AF1EE677A76EE866A4D
:1029C00087EEA66A80ED0B6AD0ED097A77EE277A5A
:1029D00077EE867AC0ED0D7A90ED057AF4EEC77A3F
:1029E000F1EE10FA12DD80ED0D7A80ED0A0AC0EDED
:1029F0000C0A90ED0D0A704790ED066AF4EEC67A67
:102A0000F1EE10FA48BF80ED096ABFE790ED047A55
:102A1000F4EEC77AF1EE10FA48BF80ED0D7AE4E7E4
:102A2000034658B161B10AB900207047002018610F
:102A30005A601960D8609860012070470020704784
:102A400000207047034688B102688AB1406800B927
:102A50007047D8689A68904206D0904224BF5B685D
:102A6000D218101A013870475868FBE700207047E9
:102A70000020EDE700284ED02DE9F0470F46144620
:102A80001E4605460368002B47D04368002B46D0FE
:102A9000002947D00AB9002042E0FFF7D3FF0346E0
:102AA000002841D0844204D9BDF8202012F0010F43
:102AB0003CD19C4228BF1C46D5F80C90BFF35B8FDD
:102AC0006B68A3EB0908A04528BFA04628684246CA
:102AD0003946484405F007FBB4EB080A14D109EB6A
:102AE000080A6B68534598BF4FF0000ABFF35B8F2D
:102AF000C5F80CA02B691BB1224601212846984736
:102B0000B6B1346001200BE0524607EB080128689B
:102B100005F0E9FAE5E700207047002000E000201A
:102B2000BDE8F0870020FBE70020F9E70020F7E789
:102B30000120F5E700B585B000230393009303ABB4
:102B4000FFF798FF18B9002005B05DF804FB039863
:102B5000FAE7034668B102686AB1406800B9704795
:102B6000DA689868824208D09CBF5B68D218101A55
:102B7000704700207047002070470020EFE70028D2
:102B80004ED02DE9F0470F4614461E460546036811
:102B9000002B47D04368002B46D0002947D00AB904
:102BA000002042E0FFF7D5FF0346002841D08442D1
:102BB00004D9BDF8202012F0010F3CD19C4228BF5F
:102BC0001C46D5F80890BFF35B8F6B68A3EB090830
:102BD000A04528BFA046296842464944384605F02A
:102BE00082FAB4EB080A14D109EB080A6B68534562
:102BF00098BF4FF0000ABFF35B8FC5F808A02B69A0
:102C00001BB12246002128469847B6B13460012006
:102C10000BE05246296807EB080005F064FAE5E787
:102C200000207047002000E00020BDE8F087002071
:102C3000FBE70020F9E70020F7E70120F5E700B502
:102C400085B000230393009303ABFFF798FF18B9F7
:102C5000002005B05DF804FB0398FAE700B595B0D5
:102C60003022002108A805F0C5F90023039304933E
:102C70000593069307930193204A116C41F080510C
:102C80001164126C02F080520192019A02931C4B63
:102C90001A6842F480421A601B6803F4804302936E
:102CA000029B012308934FF48033099302230E9370
:102CB0004FF480020F9208221092A82211921293D0
:102CC0000423139308A801F081FC98B90F23039300
:102CD00002230493002305934FF4A05306934FF46B
:102CE00080530793052103A801F0ACFE20B915B06D
:102CF0005DF804FB72B6FEE772B6FEE700380240EC
:102D00000070004080B594B000F0DCFDFFF7A6FF36
:102D100000240D940E940F94109411940394B34DC9
:102D20002B6B43F004032B632B6B03F0040303931F
:102D3000039B04942B6B43F080032B632B6B03F0FA
:102D400080030493049B05942B6B43F001032B63D6
:102D50002B6B03F001030593059B06942B6B43F04B
:102D600002032B632B6B03F002030693069BDFF831
:102D7000A482224644F22001404601F013FC9C4EFE
:102D800022460421304601F00DFC44F220030D934D
:102D900001270E970F9410940DA9404601F000FBF7
:102DA00048F203030D934FF44418CDF838800F9484
:102DB000DFF864920DA9484601F0F2FA4FF4C073AF
:102DC0000D930E940F940DA9484601F0E9FA0423DF
:102DD0000D930E970F9410940DA9304601F0E0FA70
:102DE0004FF480530D93CDF838800F970DA93046DE
:102DF00001F0D6FA22460521062001F047F8062008
:102E000001F07AF822460521072001F03FF807205B
:102E100001F072F822460521282001F037F8282019
:102E200001F06AF801942B6B43F480032B632B6B46
:102E300003F480030193019B02942B6B43F4001372
:102E40002B632B6B03F400130293029B22460C218D
:102E50000B2001F01BF80B2001F04EF822460C214C
:102E6000102001F013F8102001F046F82246092145
:102E7000382001F00BF8382001F03EF822460D21F1
:102E80003A2001F003F83A2001F036F822460D21ED
:102E9000462000F0FBFF462001F02EF85548564B27
:102EA00003604FF4E13343608460C46004610C2329
:102EB00043618461C46102F0E3FD002840F07B813E
:102EC00000230D930E930F9310934C484C4A0260CD
:102ED0004FF440324260836001220261037680F841
:102EE00020304FF08051C1624FF060618162C36059
:102EF0000521C16180F83020436100F00FFD0028FA
:102F000040F05B8102230D9301230E9307230F935F
:102F10000DA93A4800F0E0FE002840F0508105235A
:102F20000D9302230E930DA9344800F0D5FE00281E
:102F300040F0478106230D9303230E930DA92F48DC
:102F400000F0CAFE002840F03E8108230D930423C0
:102F50000E930DA9294800F0BFFE002840F03581EE
:102F600009230D9305230E930DA9244800F0B4FE08
:102F7000002840F02C812348234B03604FF48273D8
:102F8000436000238360C360036143614FF4802288
:102F900082612822C2610362436283620A23C362A0
:102FA00001F040FE002840F01481002309930A93A9
:102FB0000B930C93079308930D930E930F93109319
:102FC0001193129313931148114A02600122426037
:102FD000202282604AF21042C2600361836102F0E3
:102FE000EBFB002840F0F78018E000BF00380240FB
:102FF00000040240044C00200010014090500020CA
:1030000000200140D84F0020003C0040B04D00207F
:103010000004004000080240000002404FF48053CA
:10302000099309A97D4802F046FA002840F0D580AE
:103030007A4802F0F7FB002840F0D1800023079384
:10304000089307A9754802F023FC002840F0C980C6
:1030500060230D9349F640430E9300220F92119284
:103060000DA96E4802F0ACF9002840F0BC804FF486
:10307000FA630E9304220DA9684802F0A1F9002812
:1030800040F0B38042F210730E9308220DA96348FA
:1030900002F096F9002840F0AA8047F230530E93D0
:1030A0000C220DA95D4802F08BF9002840F0A180A8
:1030B0005A4800F08BFA00230D930E930F93109350
:1030C00009930A935648574A0260A72242608360D8
:1030D00040F2E732C260036143618023836102F002
:1030E0006BFB002840F087804FF480530D930DA9AF
:1030F0004B4802F0E0F900287FD1202309930023F8
:103100000A9309A9464802F0C3FB002877D100239F
:103110000D930E930F9310931193129313934248B0
:10312000424A0260436083606822C2600361836137
:1031300002F042FB002864D13B4802F073FB0028F8
:1031400061D160230D9342230E9300220F9204233A
:1031500011930DA9344802F033F9002855D100230A
:103160000D930E930F93109309930A9330484FF0E9
:10317000804202605322426083604FF0FF32C2609F
:103180000361836102F018FB002840D14FF48053A3
:103190000D930DA9264802F08EF9002839D100239D
:1031A00009930A9309A9224802F072FB002832D140
:1031B00003F0DAFDFEE772B6FEE772B6FEE772B61E
:1031C000FEE772B6FEE772B6FEE772B6FEE772B6CB
:1031D000FEE772B6FEE772B6FEE772B6FEE772B6BB
:1031E000FEE772B6FEE772B6FEE772B6FEE772B6AB
:1031F000FEE772B6FEE772B6FEE772B6FEE772B69B
:10320000FEE772B6FEE772B6FEE772B6FEE772B68A
:10321000FEE772B6FEE772B6FEE700BFB04D0020D3
:10322000FC4C002000040140484C002000440140B8
:10323000644E002008B50268034B9A4200D008BDD6
:1032400000F05AFBFBE700BF0010004072B6FEE73B
:1032500010B582B0002400941C4B5A6C42F480429A
:103260005A645A6C02F480420092009A01941A6CDB
:1032700042F080521A641B6C03F080530193019B4F
:10328000224601216FF00B0000F000FE22460121D2
:103290006FF00A0000F0FAFD224601216FF00900EC
:1032A00000F0F4FD224601216FF0040000F0EEFD75
:1032B000224601216FF0030000F0E8FD22460121C3
:1032C0006FF0010000F0E2FD02B010BD00380240D6
:1032D00070B588B000230393049305930693079376
:1032E000026803F1804303F590339A4201D008B09D
:1032F00070BD04460025009503F58C335A6C42F4EA
:1033000080725A645A6C02F480720092009A01959D
:103310001A6B42F001021A631A6B02F00102019269
:10332000019A02951A6B42F002021A631B6B03F0BA
:1033300002030293029B642303930326049603A9CA
:10334000134801F02DF803960496059503A911483A
:1033500001F026F81048114B036045608560C56098
:103360004FF4806303614FF4006343614FF40053F3
:1033700083614FF48073C3610562456200F0E8FD2C
:1033800018B9054BA3639C63B1E7FFF75FFFF8E74C
:10339000000002400004024030500020106402404F
:1033A0002DE9F04188B0002303930493059306931D
:1033B00007930268394B9A4202D008B0BDE8F08109
:1033C00004460025009503F5FE331A6C42F40042D2
:1033D0001A641A6C02F400420092009A01951A6B6A
:1033E00042F001021A631A6B02F001020192019A83
:1033F00002951A6B42F004021A631B6B03F004037C
:103400000293029B102303934FF00208CDF8108023
:10341000032706970626079603A9214800F0C0FF58
:103420004FF4E0530393CDF8108005950697079667
:1034300003A91C4800F0B4FF1B481C4B0360456007
:103440008560C5604FF48063036145618561C56136
:103450000562456200F07CFDC8B9134BE3649C63D0
:103460001348144B03600023436040228260C36012
:103470004FF48062026143618361C361036243620E
:1034800000F066FD30B90A4BA3649C6395E7FFF733
:10349000DDFEE2E7FFF7DAFEF5E700BF003C0040A3
:1034A0000000024000080240784F002010600240F7
:1034B000184F00208860024010B58AB000230593A1
:1034C00006930793089309930368B3F1804F0AD0DA
:1034D000394A93421CD0394A934226D0384A934203
:1034E00040D00AB010BD0021009103F50E331A6CD4
:1034F00042F001021A641B6C03F001030093009B6D
:103500000A461C2000F0C2FC1C2000F0F5FCE8E795
:10351000002301932B4B1A6C42F002021A641B6CBD
:1035200003F002030193019BDBE700240294254B87
:103530005A6C42F002025A645B6C03F0020302937D
:10354000029B224605212C2000F0A0FC2C2000F03C
:10355000D3FC224605212D2000F098FC2D2000F000
:10356000CBFCBEE700240394164B5A6C42F40032A5
:103570005A645A6C02F400320392039A04941A6B50
:1035800042F002021A631B6B03F002030493049BD4
:103590004FF480730593022306930323099305A92F
:1035A000094800F0FDFE22462146192000F06EFC7D
:1035B000192000F0A1FC94E7000400400004014041
:1035C00000440140003802400004024000B587B0CA
:1035D00000230193029303930493059302680E4B17
:1035E0009A4202D007B05DF804FB002300930B4B16
:1035F0001A6B42F004021A631B6B03F0040300937E
:10360000009B4FF47073019302230293059301A969
:10361000034800F0C5FEE5E7000400400038024022
:103620000008024030B589B000230393049305934A
:1036300006930793026803F1804303F588339A42A7
:1036400001D009B030BD04460025019503F594333F
:103650005A6C42F010025A645A6C02F01002019245
:10366000019A02951A6B42F001021A631B6B03F078
:1036700001030293029B4FF4C0630393022304935C
:10368000032306930723079303A9204800F088FE2D
:103690001F48204B03604FF000634360402383606A
:1036A000C5604FF48063036145618561C561056252
:1036B000456200F04DFC10BB154B63639C631648DC
:1036C000164B03604FF00063436000238360C360C8
:1036D0004FF48062026143618361C36103624362AC
:1036E00000F036FC70B90C4BA3639C6300220D21E3
:1036F000252000F0CBFB252000F0FEFBA1E7FFF723
:10370000A5FDD9E7FFF7A2FDEDE700BF00000240ED
:10371000A44B0020B8640240444B002040640240A7
:1037200008B500F0E9F808BD30B589B004460023BB
:103730000193244B1A6C42F010021A641B6C03F0C4
:1037400010030193019B02A903A801F04DFA069B07
:10375000F3B901F029FA03461B481C4A026040F203
:10376000E732C2601A4AA2FB03239B0C013B436071
:10377000002303618360836102F01EF8054658B19F
:10378000144A0E21104801F08AFC284609B030BDC9
:1037900001F00AFA4300DFE70B4801F071FB054630
:1037A0000028EDD1362000F0A7FB0F2C01D9012510
:1037B000E6E700222146362000F068FB064B1C603D
:1037C000DEE700BF00380240D85000200010004063
:1037D00083DE1B43213700080C000020FEE7FEE7D4
:1037E000FEE7FEE7704708B5012000F0E1FE08BDE6
:1037F00008B5022000F0DCFE08BD000008B5024854
:1038000000F0E0FC08BD00BF784F002008B502487A
:1038100000F0D8FC08BD00BF184F002008B50248D2
:1038200001F072FB08BD00BF644E002008B50248DD
:1038300002F07EFA08BD00BF044C002008B54FF42A
:10384000805000F0B5FE4FF4004000F0B1FE08BD1E
:1038500008B5024801F058FB08BD00BFFC4C002031
:1038600008B5024801F050FB08BD00BFFC4C002029
:1038700008B5024801F048FB08BD00BFD850002041
:1038800008B5024800F09EFC08BD00BF3050002083
:1038900008B5024800F096FC08BD00BF444B00206C
:1038A00008B5024800F08EFC08BD00BFA44B002004
:1038B000034AD2F8883043F47003C2F88830704766
:1038C00000ED00E008B50B4B1A6842F400721A6074
:1038D0001A6842F480621A601A6842F480721A60B0
:1038E000032000F0C1FA0F20FFF71EFFFFF7B0FC26
:1038F000002008BD003C0240034A1168034B1B78BE
:103900000B441360704700BF8C510020080000205A
:10391000014B1868704700BF8C510020002800F050
:10392000B98010B50446036C43B1236C13F0100F3B
:103930000BD00120002384F83C3010BDFFF7C8FCF9
:103940000023636484F83C30EFE7236C23F488534E
:1039500023F0020343F0020323644F4B5A6822F41E
:1039600040325A605A6861680A435A602268536854
:1039700023F48073536022685368216943EA01236A
:1039800053602268536823F0407353602268536881
:10399000A1680B4353602268936823F4006393602B
:1039A00022689368E1680B439360A26A3B4B9A429A
:1039B0005FD02268936823F07063936022689368F5
:1039C000A16A0B4393602268936823F0405393608D
:1039D00022689368E16A0B4393602268936823F03E
:1039E0000203936022689368217E43EA4103936057
:1039F00094F82030002B47D02268536843F40063CA
:103A000053602268536823F46043536021684B6815
:103A1000626A013A43EA42334B602268D36A23F474
:103A20007003D3622168CB6AE269013A43EA025328
:103A3000CB622268936823F40073936022689368D2
:103A400094F8301043EA412393602268936823F48A
:103A50008063936022689368616943EA812393607D
:103A600000206064236C23F0030343F0010323640C
:103A700060E72268936823F070639360226893681C
:103A800023F040539360A8E72268536823F400634F
:103A90005360C2E701207047002301400100000F7E
:103AA00010B582B013460022019290F83C20012A02
:103AB00000F0AE800446012280F83C200268906845
:103AC00010F0010F14D1906840F001009060544A4A
:103AD0001068544AA2FB0020800C00EB40000190CB
:103AE000019A2AB101980138019001980028F9D172
:103AF0002268906810F4807F03D0906820F4807072
:103B000090602268906810F0010F76D0206C20F44D
:103B1000E06020F0010040F480702064526812F4EC
:103B2000806F05D0226C22F4405242F4805222640D
:103B3000226C12F4805F1ABF626C22F0060200222F
:103B40006264002284F83C20A26B3748D063A26BE9
:103B500036481064A26B3648D06422686FF02200A9
:103B600010602068426842F080624260206882688B
:103B700042F48072826020680A4600F14C01A06B1A
:103B800000F07EFA2B4B5B6813F01F0F24D12368E3
:103B9000294A934216D002F58072934204D0274AF4
:103BA000934209D0002031E002F50072526812F011
:103BB0001F0F07D0002029E002F58072526812F032
:103BC000100F27D19A6812F0405F25D19A6842F011
:103BD00080429A60002019E02268174B9A4201D077
:103BE000002013E09B6813F0405F17D1124A9368DE
:103BF00043F080439360002008E0236C43F01003FF
:103C00002364636C43F001036364002002B010BDC1
:103C10000220FBE70020F9E70020F7E70020F5E7A6
:103C20000400002083DE1B43653C0008433C000881
:103C30004F3C0008002301400020014000220140C9
:103C4000704708B5806BFFF7FBFF08BD704708B5EC
:103C5000806B40230364436C43F004034364FFF729
:103C6000F5FF08BD08B50346806B026C12F0500FDB
:103C700025D1036C43F40073036403689A6812F05F
:103C8000405F19D1027EBAB9DA6A12F4700F03D01C
:103C90009A6812F4806F0FD15A6822F020025A609D
:103CA000036C23F480730364036C13F4805F03D10B
:103CB000036C43F00103036403F0D8F808BD026C01
:103CC00012F0100F04D1826BD26C18469047F5E7C2
:103CD000FFF7BCFFF2E7000030B482B0002201928F
:103CE00090F83C20012A00F0B5800346012280F8BC
:103CF0003C200A68092A3AD90468E06892B202EBCB
:103D000042021E3A4FF0070C0CFA02F220EA0202BD
:103D1000E2601C68E5680A8802EB42021E3A886885
:103D200090402843E0604A68062A36D81C68606BD9
:103D300002EB8202053A4FF01F0C0CFA02F220EA65
:103D4000020262631C68656B08884A6802EB8202A3
:103D5000053A00FA02F22A43626318683E4A90422A
:103D60004BD0002083F83C0002B030BC70470468A0
:103D7000206992B202EB42024FF0070C0CFA02F2F9
:103D800020EA020222611C6825690A8802EB4200CF
:103D90008A6882402A432261C5E70C2A16D81D682A
:103DA000286B02EB8202233A1F2404FA02F220EA73
:103DB00002022A631C68256B08884A6802EB8202AB
:103DC000233A00FA02F22A432263C6E71D68E86A32
:103DD00002EB8202413A1F2404FA02F220EA0202B4
:103DE000EA621C68E56A08884A6802EB8202413A86
:103DF00000FA02F22A43E262AFE70A68122A1FD0F1
:103E00000A68103A012AACD81448426842F4000209
:103E100042600A68102AA4D1114A12681149A1FB14
:103E20000212920C02EB820252000192019A002AC5
:103E300097D0019A013A0192019A002AF9D190E7AC
:103E40000648426842F4800242601868024A904282
:103E5000D6D086E7022087E70020014000230140FA
:103E60000400002083DE1B430749CA68030203F4F1
:103E7000E06322F4E0621204120C134343F0BF63C8
:103E800043F40033CB60704700ED00E000B5184B01
:103E9000DB68C3F30223C3F1070CBCF1040F28BF96
:103EA0004FF0040C03F1040EBEF1060F8CBF033B70
:103EB00000234FF0FF3E0EFA0CFC21EA0C01994062
:103EC0000EFA03FE22EA0E021143002809DB090163
:103ED000C9B200F1604000F5614080F800135DF860
:103EE00004FB00F00F000901C9B2024B1954F6E7B8
:103EF00000ED00E014ED00E0002807DB410900F0D0
:103F00001F0001238340024A42F82130704700BF5E
:103F100000E100E010B402460368D8B210380A4944
:103F2000A1FB00410909094C615CD1655F2887BF8D
:103F30006FF30903181D23F47F7020F003009065D0
:103F40005DF8044B704700BFABAAAAAAF49F000813
:103F500038B50446FFF7DCFC002C00F08C800546E9
:103F6000022384F83530002384F834302268136843
:103F700023F00103136023681A6812F0010F0AD0BE
:103F8000FFF7C6FC431B052BF5D9202363650320EF
:103F900084F8350038BD1A68384911406268A06855
:103FA0000243E06802432069024360690243A0695A
:103FB0000243E0690243206A02430A43616A04291A
:103FC00021D01A6021684A6922F00702636A1A4305
:103FD000042B0AD1A06A0243E36A33B1A5693DBB51
:103FE00001281FD030F0020012D04A612046FFF7AE
:103FF00091FFE26D3F2393408360002060650123C1
:1040000084F83530C6E7E16A206B01430A43D8E7FC
:10401000C3F30063002BE8D040236365012084F8DC
:104020003500B7E7B3F1C07F14BF00230123F1E7E8
:10403000B5F5005F08D00228EED90328D5D1C3F327
:104040000063002BD1D0E7E70328CED801A555F8AF
:1040500020F000BF19400008654000081940000822
:104060006B400008C3F30063EBE7B3F1C07F14BFFC
:1040700000230123E5E701208CE700BF3F8010F01B
:1040800070B4846D90F834C0BCF1010F3FD04FF094
:10409000010C80F834C090F835C05FFA8CFCBCF19C
:1040A000010F05D0002380F83430022070BC704727
:1040B000022580F83550002545650668356825F4E9
:1040C0008025356005686B608368402B1AD00368D3
:1040D00099600368DA60C26D3F239340A360026871
:1040E000136843F016031360036C23B1026813686E
:1040F00043F0080313600268136843F00103136080
:104100000020D3E703689A600368D960E3E70220E0
:10411000CCE770B50446866DFFF7FAFB94F83530AE
:10412000DBB2022B06D0802363650120002384F8D4
:10413000343070BD05462268136823F016031360FF
:104140002268536923F080035361236CCBB122684A
:10415000136823F0080313602268136823F0010337
:10416000136023681B6813F0010F0ED0FFF7D0FB1C
:10417000431B052BF5D920236365032084F8350004
:10418000D4E7A36C002BE2D1E6E7E26D3F23934036
:10419000B360012384F835300020C7E790F835304C
:1041A000DBB2022B03D08023436501207047052337
:1041B00080F835300268136823F001031360002093
:1041C00070470000F0B583B0044600230193724BA2
:1041D0001E68876D3D68C26D082393402B4210D046
:1041E00003681A6812F0040F0BD01A6822F0040258
:1041F0001A60C26D08239340BB60436D43F0010316
:104200004365E26D012393402B4209D02268526935
:1042100012F0800F04D0BB60636D43F0020363654E
:10422000E26D042393402B4209D02268126812F0F9
:10423000020F04D0BB60636D43F004036365E26D5D
:10424000102393402B4224D02268126812F0080FEA
:104250001FD0BB6023681A6812F4802F0DD01B6832
:1042600013F4002F04D1236C9BB12046984710E033
:10427000A36C73B1204698470BE01A6812F4807F54
:1042800003D11A6822F008021A60236C0BB1204691
:104290009847E26D202393402B4255D02268126844
:1042A00012F0100F50D0BB6094F83530DBB2052B04
:1042B0000ED023681A6812F4802F33D01B6813F4D1
:1042C000002F2AD1636C002B3ED0204698473BE05C
:1042D0002268136823F0160313602268536923F0E1
:1042E00080035361236CA3B12268136823F0080391
:1042F0001360E26D3F239340BB60012384F83530A7
:10430000002384F83430236D002B43D02046984797
:1043100040E0A36C002BE7D1EBE7E36BA3B12046B1
:10432000984711E01A6812F4807F09D11A6822F0C8
:1043300010021A60012384F83530002384F83430E9
:10434000E36B0BB120469847636D1BB3636D13F0AD
:10435000010F1BD0114BA3FB0636B60A052384F8C8
:1043600035302268136823F001031360019B013389
:104370000193B34204D823681B6813F0010FF5D1F1
:10438000012384F83530002384F83430E36C0BB11A
:104390002046984703B0F0BD04000020B5814E1BB5
:1043A0002DE9F04F83B0002213464FF0010E032594
:1043B0004FF00F08754C4BE0876805FA02FA27EAC0
:1043C0000A0ACF68974047EA0A078760476827EAE2
:1043D0000C0C4F68C7F300179F4047EA0C07476073
:1043E00044E04FF0000C0CFA0BFC4CEA0A0CC7F846
:1043F00008C0A7686FEA090C4E6816F4801F0CBF4E
:104400000CEA070749EA0707A760E7684E6816F451
:10441000001F0CBF0CEA070749EA0707E760676857
:104420004E6816F4003F0CBF0CEA070749EA07077D
:10443000676027684E6816F4803F0CBF0CEA0707D8
:1044400049EA0707276001330232102B00F09B80F6
:104450000EFA03FC0F680CEA07093CEA0707F2D1E1
:104460004F6807F00307013F012FA5D94F6807F0F8
:104470000307032F23D0C76805FA02FC27EA0C0CB8
:104480008F68974047EA0C07C7604F6807F003073B
:10449000022F14D14FEAD30C00EB8C0CDCF8207007
:1044A00003F0070B4FEA8B0B08FA0BFA27EA0A0A0C
:1044B0000F6907FA0BF747EA0A07CCF8207007687C
:1044C00005FA02FC27EA0C0C4F6807F00307974037
:1044D00047EA0C0707604F6817F4403FB3D0002746
:1044E00001972B4E776C47F480477764776C07F41D
:1044F00080470197019F23F0030707F1804707F5E5
:104500009C37D7F808A003F0030B4FEA8B0B08FA8F
:104510000BFC2AEA0C0AA6F56056B0423FF461AFE4
:1045200006F58066B0421CD006F58066B0421BD00E
:10453000DFF860C060451AD00CF5806C604519D07A
:104540000CF5806C604518D00CF5806C604517D078
:104550000CF5806C604514BF4FF0080C4FF0070C51
:1045600041E74FF0010C3EE74FF0020C3BE74FF004
:10457000030C38E74FF0040C35E74FF0050C32E739
:104580004FF0060C2FE703B0BDE8F08F003C014070
:1045900000380240000C02400369194214BF012098
:1045A000002070470AB1816170470904816170473A
:1045B00008B5054B5B69034200D108BD024B586149
:1045C00002F050FCF9E700BF003C0140002800F079
:1045D000E1812DE9F04182B00446036813F0010F38
:1045E0003BD09F4B9B6803F00C03042B2CD09C4BBF
:1045F0009B6803F00C03082B21D06368B3F5803F60
:104600004FD0B3F5A02F52D0954B1A6822F48032C8
:104610001A601A6822F480221A606368002B50D056
:10462000FFF776F905468E4E336813F4003F14D138
:10463000FFF76EF9401B6428F6D90320B1E1884BDF
:104640005B6813F4800FD8D0854B1B6813F4003FD0
:1046500003D06368002B00F09F81236813F0020FE2
:1046600054D07F4B9B6813F00C0F3ED07C4B9B6863
:1046700003F00C03082B33D0E368002B68D0794B90
:1046800001221A60FFF744F90546754E336813F0AE
:10469000020F54D1FFF73CF9401B0228F6D9032042
:1046A0007FE16F4A136843F480331360B5E76C4BC6
:1046B0001A6842F480221A601A6842F480321A6042
:1046C000ABE7FFF725F90546654E336813F4003F65
:1046D000C3D0FFF71DF9401B6428F6D9032060E121
:1046E0005F4B5B6813F4800FC6D15D4B1B6813F002
:1046F000020F03D0E368012B40F05081584A136841
:10470000216923F0F80343EAC1031360236813F01F
:10471000080F42D063696BB3524B0122C3F8802E5D
:10472000FFF7F6F805464E4E736F13F0020F34D1C3
:10473000FFF7EEF8401B0228F6D9032031E1484A82
:104740001368216923F0F80343EAC1031360DDE72E
:10475000444B00221A60FFF7DBF80546404E3368F1
:1047600013F0020FD2D0FFF7D3F8401B0228F6D97E
:10477000032016E13B4B0022C3F8802EFFF7C8F858
:104780000546374E736F13F0020F06D0FFF7C0F8DF
:10479000401B0228F6D9032003E1236813F0040F1D
:1047A00076D02F4B1B6C13F0805F33D10023019325
:1047B0002B4B1A6C42F080521A641B6C03F080532E
:1047C0000193019B0125284B1B6813F4807F23D0A4
:1047D000A368012B34D0052B38D0214B1A6F22F05F
:1047E00001021A671A6F22F004021A67A368002BED
:1047F0003CD0FFF78DF80646194F41F288383B6FE1
:1048000013F0020F43D1FFF783F8801B4045F6D920
:104810000320C6E00025D6E7134A136843F48073EB
:104820001360FFF775F806460F4F3B6813F4807F5F
:10483000CED1FFF76DF8801B0228F6D90320B0E037
:10484000074A136F43F001031367CFE7044B1A6F56
:1048500042F004021A671A6F42F001021A67C5E7B4
:10486000003802400000474200700040FFF750F857
:104870000646524F41F288383B6F13F0020F06D0C4
:10488000FFF746F8801B4045F6D9032089E0EDB9D3
:10489000A369002B00F08480484A926802F00C0261
:1048A000082A51D0022B17D0454B00221A66FFF779
:1048B0002FF80446414D2B6813F0007F42D0FFF7DC
:1048C00027F8001B0228F6D903206AE03B4A136C44
:1048D00023F080531364DBE7394B00221A66FFF79D
:1048E00017F80546354E336813F0007F06D0FFF702
:1048F0000FF8401B0228F6D9032052E0E369226A30
:104900001343626A43EA8213E26A43EA0263A26AD9
:104910005208013A43EA0243284A5360284B0122D5
:104920001A66FEF7F5FF0446244D2B6813F0007F4E
:1049300006D1FEF7EDFF001B0228F6D9032030E078
:1049400000202EE000202CE0012B2DD01B4B5B68BB
:1049500003F48001E269914228D103F03F02216A09
:104960008A4225D1616A47F6C0721A40B2EB811FB4
:1049700020D103F44031A26A5208013AB1EB024F50
:104980001AD1E26A03F07063B3EB026F14BF012027
:10499000002006E001207047012002E0012000E035
:1049A000002002B0BDE8F0810120FAE70120F8E71D
:1049B0000120F6E70120F4E70120F2E70038024089
:1049C0000000474208B51D4B9B6803F00C03082B01
:1049D00001D01B4808BD194B5A6802F03F025B68C2
:1049E000164B5868C0F388104FEA401CBCEB000C13
:1049F0006EEB0E0E4FEA8E1343EA9C634FEA8C1166
:104A0000B1EB0C0163EB0E03DB0043EA5173C90009
:104A100011EB000C43F10003990200234FEA8C20B4
:104A200041EA9C51FBF748FE044B5B68C3F301432A
:104A300001335B00B0FBF3F0CCE700BF003802406D
:104A40000024F400002800F09D802DE9F0410D467F
:104A50000446504B1B6803F007038B4208D2CBB2CD
:104A60004C4A1370136803F007038B4240F08C80AC
:104A7000236813F0020F17D013F0040F04D0464A36
:104A8000936843F4E0539360236813F0080F04D055
:104A9000414A936843F4604393603F4A936823F02C
:104AA000F003A1680B439360236813F0010F32D029
:104AB0006268012A21D0931E012B25D9364B1B6831
:104AC00013F0020F62D034498B6823F003031343C1
:104AD0008B60FEF71DFF06462F4F41F28838BB68FA
:104AE00003F00C036268B3EB820F14D0FEF710FFE3
:104AF000801B4045F3D9032042E0274B1B6813F489
:104B0000003FE0D101203BE0234B1B6813F0007F06
:104B1000D9D1012034E01F4B1B6803F00703AB42DF
:104B200007D9EAB21B4B1A701B6803F00703AB42AC
:104B30002ED1236813F0040F06D0174A936823F48C
:104B4000E053E1680B439360236813F0080F07D02C
:104B5000114A9368216923F4604343EAC1039360D7
:104B6000FFF730FF0C4B9B68C3F303130B4AD35C76
:104B7000D8400B4B18600B4B1868FEF7D5FD002092
:104B8000BDE8F081012070470120F9E70120F7E737
:104B90000120F5E7003C024000380240E49F000895
:104BA000040000200C000020044B9B68C3F3822308
:104BB000034AD35C034A1068D8407047003802406B
:104BC000DC9F000804000020044B9B68C3F34233C1
:104BD000034AD35C034A1068D8407047003802404B
:104BE000DC9F0008040000200F2303600B4B9A6831
:104BF00002F0030242609A6802F0F00282609A6852
:104C000002F4E052C2609B68DB0803F4E0530361E6
:104C1000034B1B6803F007030B607047003802402A
:104C2000003C024000285AD010B50446436A33B90C
:104C30004368B3F5827F05D00023C36102E00023FF
:104C4000036143610023A36294F85130002B40D0EC
:104C5000022384F851302268136823F04003136064
:104C60002268636803F48273A16801F404410B4372
:104C7000E16801F400610B43216901F002010B437B
:104C8000616901F001010B43A16901F400710B435B
:104C9000E16901F038010B43216A01F080010B4307
:104CA000A16A01F400510B4313602168638B03F088
:104CB0000403626A02F0100213434B602268D36956
:104CC00023F40063D36100206065012384F8513030
:104CD00010BD84F850302046FEF762FBB8E7012093
:104CE000704770477047704770477047704770470C
:104CF000704770477047000070B4036A23F00103E7
:104D00000362036A4468826922F073020D682A43D1
:104D100023F002038D682B430D4DA84203D005F507
:104D20008065A8420DD123F00803CD682B4323F002
:104D3000040324F440748D694E6946EA050C4CEA7C
:104D40000404446082614A684263036270BC704735
:104D50000000014070B4036A23F480730362036AA5
:104D60004468C26922F073020D682A4323F4007379
:104D70008D6843EA05230E4DA84203D005F58065F2
:104D8000A8420ED123F40063CD6843EA052323F43F
:104D9000806324F440548D694E6946EA050C44EA68
:104DA0000C144460C2614A68C263036270BC7047FD
:104DB0000000014030B4036A23F480530362036AA5
:104DC0004468C26922F4E6420D6842EA052223F4EF
:104DD00000538D6843EA0533094DA84203D005F519
:104DE0008065A84204D124F480444D6944EA8514C6
:104DF0004460C2614A680264036230BC704700BF0D
:104E00000000014090F83D30DBB2012B32D102238B
:104E100080F83D300368194A934220D0B3F1804FA7
:104E20001DD0A2F57C42934219D002F580629342D4
:104E300015D002F58062934211D002F57842934278
:104E40000DD002F57052934209D0A2F594329342EC
:104E500005D01A6842F001021A60002070479A6873
:104E600002F00702062A07D01A6842F001021A600F
:104E7000002070470120704700207047000001406B
:104E800090F83D30DBB2012B37D1022380F83D3062
:104E90000268D36843F00103D3600368194A934260
:104EA00020D0B3F1804F1DD0A2F57C42934219D09F
:104EB00002F58062934215D002F58062934211D0D0
:104EC00002F5784293420DD002F57052934209D018
:104ED000A2F59432934205D01A6842F001021A609A
:104EE000002070479A6802F00702062A07D01A6865
:104EF00042F001021A600020704701207047002034
:104F0000704700BF0000014010B5044603681A69ED
:104F100012F0020F13D0DA6812F0020F0FD06FF008
:104F200002021A610123037703689B6913F0030FE0
:104F300000F09280D0F890309847002323772368C0
:104F40001A6912F0040F14D0DA6812F0040F10D0AE
:104F50006FF004021A610223237723689B6913F41C
:104F6000407F00F08180D4F890302046984700239D
:104F7000237723681A6912F0080F13D0DA6812F049
:104F8000080F0FD06FF008021A61042323772368FB
:104F9000DB6913F0030F70D0D4F8903020469847A7
:104FA0000023237723681A6912F0100F13D0DA68F0
:104FB00012F0100F0FD06FF010021A610823237740
:104FC0002368DB6913F4407F60D0D4F8903020462A
:104FD00098470023237723681A6912F0010F0AD03B
:104FE000DA6812F0010F06D06FF001021A61D4F8EE
:104FF00080302046984723681A6912F0800F0AD043
:10500000DA6812F0800F06D06FF080021A61D4F8CF
:10501000B0302046984723681A6912F0400F0AD032
:10502000DA6812F0400F06D06FF040021A61D4F82F
:1050300088302046984723681A6912F0200F0AD05A
:10504000DA6812F0200F06D06FF020021A61D4F84F
:10505000A8302046984710BDD0F898309847D4F82B
:105060009C302046984768E7D4F898302046984707
:10507000D4F89C302046984779E7D4F898302046F9
:105080009847D4F89C302046984789E7D4F8983060
:1050900020469847D4F89C302046984799E7002A44
:1050A00000F0B78010B40346144690F83C20012A63
:1050B00000F0B18090F83D00C0B2012812D093F802
:1050C0003D2002F0FF00002A40F09A800D2900F2F6
:1050D0009E80DFE801F0787B7D7F81838587898BE7
:1050E0008D8F91931A2900F28C80DFE801F00E1168
:1050F00014171A1D202326292C2F3235383C404402
:10510000484C5054585C606468009C64084678E0E1
:10511000DC64002075E01C65002072E05C65002006
:105120006FE09C6500206CE0DC65002069E01C6697
:10513000002066E05C66002063E09C66002060E082
:10514000DC6600205DE01C6700205AE05C67002000
:1051500057E09C67002054E0DC67002051E0C3F872
:10516000804000204DE0C3F88440002049E0C3F8AF
:105170008840002045E0C3F88C40002041E0C3F89F
:10518000904000203DE0C3F89440002039E0C3F88F
:105190009840002035E0C3F89C40002031E0C3F87F
:1051A000A04000202DE0C3F8A440002029E0C3F86F
:1051B000A840002025E0C3F8AC40002021E0C3F85F
:1051C000B04000201DE09C6408461AE0DC6418E052
:1051D0001C6516E05C6514E09C6512E0DC6510E07F
:1051E0001C660EE05C660CE09C660AE0DC6608E08B
:1051F0001C6706E05C6704E09C6702E0DC6700E097
:105200000120002283F83C205DF8044B7047012008
:10521000F7E7012070470220F6E7000003684D4AD7
:10522000904269D0B0F1804F7CD0A2F57C42904290
:1052300058D002F58062904259D002F580629042C7
:1052400000F0828002F57842904220D0424A90429B
:105250006CD002F58062904268D002F58062904284
:1052600064D0A2F59832904260D002F580629042FC
:105270005CD002F58062904258D023F080034A69E6
:10528000134303608B68C3620B68836247E023F0BB
:1052900070034A6813432F4A904231D0B0F1804FD7
:1052A00044D0A2F57C42904240D002F58062904208
:1052B0003CD002F58062904238D023F44073CA6833
:1052C000134323F080034A69134303608B68C3626E
:1052D0000B6883621F4B98421FD003F5806398428E
:1052E0001BD01CE023F070034A6813431EE023F038
:1052F00070034A68134319E023F070034A681343AC
:1053000023F44073CA68134323F080034A691343AC
:1053100003608B68C3620B6883620B6903630123BC
:105320004361704723F070034A68134323F44073CA
:10533000CA68134323F080034A69134303608B68F0
:10534000C3620B688362EAE723F070034A68134381
:10535000ECE700BF000001400040014070B4036A68
:1053600023F010030362036A4468826922F4E64270
:105370000D6842EA052223F020038D6843EA0513F5
:105380000E4DA84203D005F58065A8420ED123F04A
:105390008003CD6843EA051323F0400324F44064FE
:1053A0008D694E6946EA050C44EA8C0444608261CA
:1053B0004A688263036270BC704700BF000001400E
:1053C00038B590F83C30012B66D004460D460123D9
:1053D00080F83C300C2A5AD8DFE802F007595959B6
:1053E0001B5959593059595944000068FFF784FC3A
:1053F0002268936943F0080393612268936923F05C
:10540000040393612268936929690B439361002027
:105410003EE00068FFF7A2FF2268936943F400634F
:1054200093612268936923F480639361226893698E
:10543000296943EA01239361002029E00068FFF70E
:1054400089FC2268D36943F00803D3612268D369D9
:1054500023F00403D3612268D36929690B43D36124
:10546000002015E00068FFF7A5FC2268D36943F42B
:105470000063D3612268D36923F48063D361226817
:10548000D369296943EA0123D361002000E00120A8
:10549000002384F83C3038BD0220FCE710B4846857
:1054A00024F47F4C0A4342EA032242EA0C0282605F
:1054B0005DF8044B704738B590F83C30012B00F094
:1054C000AD800446012380F83C30022380F83D3053
:1054D0000268936823F47F4323F0770393600B689B
:1054E000602B60D037D8402B79D015D8202B07D02F
:1054F00004D833F0100203D0012040E0302B09D152
:1055000021688A6822F07002134343F007038B601E
:10551000002034E0012032E0502B1AD103684868A3
:10552000CD68196A1A6A22F001021A629A6922F099
:10553000F00242EA051221F00A0101439A61196260
:105540002268936823F0700343F0570393600020B0
:1055500015E0012013E0B3F5805F5BD0B3F5005F89
:1055600014D0702B58D1CB684A6889680068FFF75F
:1055700095FF2268936843F077039360002001232E
:1055800084F83D30002384F83C3038BDCB684A684D
:1055900089680068FFF782FF2268936843F48043BC
:1055A00093600020EBE703684868CD681A6A22F030
:1055B00010021A6299691A6A21F4704141EA0531B0
:1055C00022F0A00242EA001299611A6222689368EE
:1055D00023F0700343F0670393600020CFE7036874
:1055E0004868CD68196A1A6A22F001021A629A693B
:1055F00022F0F00242EA051221F00A0101439A6109
:1056000019622268936823F0700343F047039360A4
:105610000020B4E70020B2E70120B0E70220B4E7A1
:1056200001F01F01036A4FF0010C0CFA01FC23EAA0
:105630000C030362036A8A401A4302627047000047
:1056400010B504460846A1BB94F83E30DBB2012BEE
:1056500067D1022384F83E30012201462068FFF71B
:10566000DFFF2368314A934248D002F580629342BB
:1056700044D0B3F1804F49D02D4A934246D002F531
:105680008062934242D002F5806293423ED002F59E
:10569000784293423AD002F57052934236D0A2F546
:1056A0009432934232D01A6842F001021A6000200C
:1056B00036E004290CD008290CBF94F8403094F847
:1056C0004130DBB2013B18BF012343B1012027E089
:1056D00094F83F30DBB2013B18BF0123F5E7042803
:1056E00008D008284FF002030CBF84F8403084F83B
:1056F0004130B1E7022384F83F30ADE75A6C42F401
:1057000000425A642368094A9342B2D19A6802F06F
:105710000702062A07D01A6842F001021A60002028
:1057200010BD0120FCE70020FAE700BF00000140A7
:1057300000040040134BC0F88030134BC0F8843095
:10574000124BC0F88830124BC0F88C30114BC0F8A7
:105750009030114BC0F89430104BC0F89830104B7B
:10576000C0F89C300F4BC0F8A0300F4BC0F8A430ED
:105770000E4BC0F8A8300E4BC0F8AC300D4BC0F843
:10578000B030704735320008E54C0008F14C000895
:10579000F34C0008E94C0008EB4C0008E74C00080B
:1057A000ED4C0008EF4C0008F54C000819590008B2
:1057B0001B5900081D59000880B310B5044690F825
:1057C0003D30F3B1022384F83D30214651F8040BFB
:1057D000FFF724FD012384F8463084F83E3084F836
:1057E0003F3084F8403084F8413084F8423084F807
:1057F000433084F8443084F8453084F83D3000204C
:1058000010BD80F83C30FFF795FFA36C1BB1A36C73
:1058100020469847D6E7024BA364F8E7012070477B
:10582000B934000880B310B5044690F83D30F3B1A8
:10583000022384F83D30214651F8040BFFF7EEFCBB
:10584000012384F8463084F83E3084F83F3084F8F1
:10585000403084F8413084F8423084F8433084F892
:10586000443084F8453084F83D30002010BD80F885
:105870003C30FFF75FFF236E1BB1236E2046984735
:10588000D6E7024B2366F8E701207047E34C000897
:1058900090F83C20012A3BD030B40346012280F826
:1058A0003C20022280F83D2004686268A06822F053
:1058B00070020D682A4362601A68164CA2421AD020
:1058C000B2F1804F17D0A4F57C44A24213D004F566
:1058D0008064A2420FD004F58064A2420BD004F58C
:1058E0007844A24207D004F57054A24203D0A4F534
:1058F0009434A24204D120F08000496808439060AB
:10590000012283F83D20002083F83C0030BC704722
:1059100002207047000001407047704770470268DE
:1059200002F10C0353E8003F23F490730C3242E879
:1059300000310029F3D1026802F1140353E8003F5B
:1059400023F00103143242E800310029F3D1036B44
:10595000012B05D0202380F83E30002303637047DD
:10596000026802F10C0353E8003F23F010030C32ED
:1059700042E800310029F3D1ECE7000010B50446FD
:105980000268136923F44053C1680B431361016833
:10599000CA6883680069034360690343E06903439D
:1059A00022F4164222F00C021343CB6022685369A2
:1059B00023F44073A1690B43536123682E4A934239
:1059C00006D002F58062934202D0FFF7EDF801E0C5
:1059D000FFF7FAF8E369B3F5004F24D0002103186C
:1059E00049411B1841F10001C90041EA5371DB0034
:1059F000181863684FEA83024FEA937341F100017C
:105A0000FAF75AFE21681D4AA2FB00435B09642491
:105A100004FB130000013230A2FB00201B0103EB4A
:105A200050138B6010BD0023021843EB03011218C2
:105A300041F10001C90041EA5271D200101841F150
:105A40000001626892185B41FAF736FE0B4AA2FB2E
:105A500000314909642303FB1103DB003233A2FB4D
:105A600003232068C3F3421202EB01121B0903F463
:105A7000F87313448360D5E7001001401F85EB5194
:105A800058B310B5044690F83D300BB3242384F886
:105A90003D302268D36823F40053D3602046FFF7DB
:105AA0006DFF2268136923F49043136122685369E0
:105AB00023F02A0353612268D36843F40053D36070
:105AC00000202064202384F83D3084F83E3010BD4F
:105AD00080F83C30FDF7A6FDD8E7012070470000B4
